:100000000C94E2000C940A010C940A010C940A016D
:100010000C940A010C940A010C940A010C940A0134
:100020000C940A010C940A010C940A010C940A0124
:100030000C940A010C940A010C940A010C940A0114
:100040000C9418050C940A010C94E6040C94C0045A
:100050000C940A010C940A010C940A010C940A01F4
:100060000C940A010C940A0100407A10F35A00A083
:10007000724E18090010A5D4E80000E87648170071
:1000800000E40B54020000CA9A3B000000E1F505B1
:10009000000080969800000040420F000000A086FB
:1000A00001000000102700000000E803000000002D
:1000B0006400000000000A000000000001000000D1
:1000C00000002C76D888DC674F0823DFC1DFAE59EB
:1000D000E1B1B796E5E3E453C63AE651997696E87E
:1000E000E6C28426EB898C9B62ED407C6FFCEFBC02
:1000F0009C9F40F2BAA56FA5F490055A2AF75C932D
:100100006B6CF9676DC11BFCE0E40D47FEF520E662
:10011000B500D0ED902E0300943577050080841E45
:10012000080000204E0A000000C80C333333330FA0
:10013000986E12831141EF8D2114893BE65516CF3D
:10014000FEE6DB18D1844B381BF77C1D901DA4BB49
:10015000E424203284725E228100C9F124ECA1E5FE
:100160003D2700000000250028002B0000000008AB
:10017000000201000003040700000000000000006E
:1001800000000000240027002A00000102030405EB
:1001900000000000230026002900040404040404D5
:1001A0000404020202020202030303030303010226
:1001B00004081020408001020408102001020408F5
:1001C0001020620511241FBECFEFD8E0DEBFCDBFE7
:1001D00021E0A8E1B1E001C01D92AA3EB207E1F71B
:1001E00011E0A0E0B1E0E6EEF8E102C005900D926A
:1001F000A831B107D9F710E0C2EED0E004C02197D2
:10020000FE010E946B0CC13ED107C9F70E94C805D0
:100210000C94710C0C940000CF92DF92EF92FF923D
:10022000CF93DF93B091C601A0E08111AB2F8091F5
:10023000C70190E0880F991FAC0140575E4FC090F6
:10024000CC01D090CD01E090CE01F090CF0130E014
:1002500020E0FA01C591D491E881B90190E080E0F5
:10026000EB23EA130AC02F5F3F4F6C157D058E0507
:100270009F0578F36FEF7FEFCB01DF91CF91FF9078
:10028000EF90DF90CF9008958230910538F0880F7D
:10029000991F880F991F05970197F1F70895FC01A1
:1002A000538D448D252F30E0842F90E0821B930BDB
:1002B000541710F0CF96089501970895FC01918D81
:1002C000828D981761F0A28DAE0FBF2FB11D5D9684
:1002D0008C91928D9F5F9F73928F90E008958FEF26
:1002E0009FEF0895FC01918D828D981731F0828DDA
:1002F000E80FF11D858D90E008958FEF9FEF089531
:10030000FC01918D228D892F90E0805C9F4F821B94
:1003100091098F7399270895FC01A48DA80FB92F17
:10032000B11DA35ABF4F2C91848D90E001968F731D
:100330009927848FA689B7892C93A089B1898C913C
:10034000837080648C93938D848D981306C002888B
:10035000F389E02D80818F7D80830895EF92FF9255
:100360000F931F93CF93DF93EC0181E0888F9B8DD8
:100370008C8D98131AC0E889F989808185FF15C092
:100380009FB7F894EE89FF896083E889F9898081B5
:100390008370806480839FBF81E090E0DF91CF9184
:1003A0001F910F91FF90EF900895F62E0B8D10E0A6
:1003B0000F5F1F4F0F731127E02E8C8D8E110CC015
:1003C0000FB607FCFACFE889F989808185FFF5CF60
:1003D000CE010E948C01F1CFEB8DEC0FFD2FF11DB2
:1003E000E35AFF4FF0829FB7F8940B8FEA89FB899D
:1003F00080818062CFCFCF93DF93EC01888D8823FB
:10040000B9F0AA89BB89E889F9898C9185FD03C077
:10041000808186FD0DC00FB607FCF7CF8C9185FF5C
:10042000F2CF808185FFEDCFCE010E948C01E9CF14
:10043000DF91CF91089582E291E00E94800121E056
:10044000892B09F420E0822F089580E090E0892B29
:1004500029F00E941B0281110C9400000895AF92B4
:10046000BF92CF92DF92EF92FF920F931F93CF93A1
:10047000DF936C017B018B01040F151FEB015E0103
:10048000AE18BF08C017D10759F06991D601ED9198
:10049000FC910190F081E02DC6010995892B79F737
:1004A000C501DF91CF911F910F91FF90EF90DF90E9
:1004B000CF90BF90AF90089590E0FC01E459FE4FBB
:1004C0002491FC01E255FE4F3491FC01E656FE4FAB
:1004D000E491EE23C9F0222339F0233001F1A8F48E
:1004E000213019F1223029F1F0E0EE0FFF1FEE5913
:1004F000FE4FA591B4918FB7F894EC91611126C08D
:1005000030953E233C938FBF08952730A9F02830C3
:10051000C9F0243049F7809180008F7D03C080911D
:1005200080008F7780938000DFCF84B58F7784BD84
:10053000DBCF84B58F7DFBCF8091B0008F77809328
:10054000B000D2CF8091B0008F7DF9CF3E2BDACFB3
:10055000CF93DF939CB59F7D9CBD9CB5937F9CBD45
:100560009CB59C7F9CBD9DB591609DBDC2EDD1E0C9
:10057000682F8A810E945C028C899D89DF91CF91CE
:100580000C9444012091D2013091D3014091D401C7
:100590005091D5012417350721F0682F822F0C9434
:1005A0005C020895CF93DF9390E0FC01E255FE4F8B
:1005B000249186569E4FFC0184918823D1F090E0CF
:1005C000880F991FFC01E058FE4FA591B491FC01E2
:1005D000EE59FE4FC591D491623071F49FB7F894F3
:1005E0003C91822F809583238C93E8812E2B288346
:1005F0009FBFDF91CF9108958FB7F894EC912E2B88
:100600002C938FBFF6CF3FB7F8948091190190914A
:100610001A01A0911B01B0911C0126B5A89B05C031
:100620002F3F19F00196A11DB11D3FBFBA2FA92F71
:10063000982F8827BC01CD01620F711D811D911D6E
:1006400042E0660F771F881F991F4A95D1F70895DA
:100650008F929F92AF92BF92CF92DF92EF92FF92D2
:100660004B015C010E9403036B017C010E940303A8
:100670006C197D098E099F09683E734081059105BB
:10068000A8F321E0821A9108A108B10888EEC80EEB
:1006900083E0D81EE11CF11C81149104A104B10473
:1006A00029F7FF90EF90DF90CF90BF90AF909F9091
:1006B0008F900895CF92DF92EF92FF920F931F9346
:1006C000CF93DF93CDB7DEB7C054D1400FB6F894C7
:1006D000DEBF0FBECDBF2FB7F89480911E01909161
:1006E0001F01A0912001B09121012FBF4091C801AD
:1006F0005091C9016091CA017091CB018C019D019B
:10070000041B150B260B370BB901A801403D5740C0
:100710006105710590F48091D001C05CDE4F0FB689
:10072000F894DEBF0FBECDBFDF91CF911F910F9127
:10073000FF90EF90DF90CF9008958093C801909341
:10074000C901A093CA01B093CB011092C3011092CA
:10075000C2011092C1011092C0011092BF0162E06B
:100760008091C4010E94D20261E070E080E090E0DC
:100770000E94280361E08091C4010E94D20260E0DF
:100780008091C4010E945C028091C5018551823034
:10079000E0F48BE291E10197F1F762E08091C4010E
:1007A0000E94D2028091D10190E00E944401F8940D
:1007B00080E00E940C016F3F7F4F8F4F9F4F61F48D
:1007C0001092D001789480E0A8CF64E170E080E0DE
:1007D00090E00E942803E1CF81E00E940C016F3F6E
:1007E0007F4F8F4F9F4F61F38E010F5F1F4F6E0141
:1007F0008FEBC81A8EEFD80A780180E00E940C01B6
:10080000F701608371838283938381E00E940C01EE
:10081000F7016483758386839783F8E0EF0EF11CFC
:10082000EC14FD0451F7789430E020E0F801C0802A
:10083000D180E280F3804481558166817781FFEF2A
:10084000CF16DF06EF06FF0631F04F3F8FEF580758
:100850006807780719F41092D001B5CFF90183E049
:10086000F595E7958A95E1F7E154FE4F8081880F71
:10087000C416D506E606F70610F180832F5F3F4FBA
:10088000085F1F4F2832310589F64091C30120913E
:10089000BF018091C001280F3327331F8091C10110
:1008A000280F311D8091C201820F932F911D99272E
:1008B0004817190681F681E08093D0012ECF816020
:1008C000DCCF8EBD00000DB407FEFDCF8EB50895C0
:1008D000CF93DF93C82FD62F80E00E94A8028C2FE1
:1008E00080620E946104C82F8D2F0E94610481E004
:1008F0000E94A8028C2FDF91CF910895CF93C82F2B
:1009000080E00E94A8028C2F0E9461048FEF0E9459
:100910006104C82F81E00E94A8028C2FCF91089516
:10092000CF93C82F80E00E94A8028C2F0E94610400
:10093000C82F81E00E94A8028C2FCF9108950F93B9
:100940001F93CF93DF93D82FC62F80E00E94A80279
:100950008D2F80620E946104D82F00E011E0C15009
:1009600030F0F80181918F010E946104F8CF81E09D
:100970000E94A8028D2FDF91CF911F910F910895B2
:100980001F920F920FB60F9211242F933F934F9304
:100990005F936F937F938F939F93AF93BF93EF93E7
:1009A000FF9382E291E00E948C01FF91EF91BF9151
:1009B000AF919F918F917F916F915F914F913F91F7
:1009C0002F910F900FBE0F901F9018951F920F92AE
:1009D0000FB60F9211242F938F939F93EF93FF9352
:1009E000E0913201F09133018081E0913801F09182
:1009F000390182FD1BC0908180913B018F5F8F7315
:100A000020913C01821741F0E0913B01F0E0EE5D66
:100A1000FE4F958F80933B01FF91EF919F918F91B6
:100A20002F910F900FBE0F901F9018958081F4CFDB
:100A30001F920F920FB60F9211242F933F938F9313
:100A40009F93AF93BF9380911E0190911F01A0913E
:100A50002001B09121013091180123E0230F2D379F
:100A600058F50196A11DB11D2093180180931E0118
:100A700090931F01A0932001B0932101809119014F
:100A800090911A01A0911B01B0911C010196A11D2A
:100A9000B11D8093190190931A01A0931B01B0938B
:100AA0001C01BF91AF919F918F913F912F910F901A
:100AB0000FBE0F901F90189526E8230F0296A11DD8
:100AC000B11DD2CFE2E2F1E01382128288EE93E010
:100AD000A0E0B0E084839583A683B7838AE091E0A9
:100AE0009183808385EC90E09587848784EC90E007
:100AF0009787868780EC90E0918B808B81EC90E0EB
:100B0000938B828B82EC90E0958B848B86EC90E0CB
:100B1000978B868B118E128E138E148EE2EDF1E080
:100B200087E090E09183808388E090E093838283E4
:100B3000168280E28783108685E0868785E090E0D4
:100B4000A0E0B0E0848B958BA68BB78B1186AFEBC2
:100B5000B1E082E015968C93159786E116968C93FA
:100B60001697E0EBF1E0E4911796EC931797ECE918
:100B7000F1E0E4911896EC93189740E85EE360E0AA
:100B800070E01D964D935D936D937C9350970895FF
:100B9000CF93DF9300D000D01F92CDB7DEB778940B
:100BA00084B5826084BD84B5816084BD85B5826072
:100BB00085BD85B5816085BD80916E008160809323
:100BC0006E0010928100809181008260809381008C
:100BD000809181008160809381008091800081609C
:100BE000809380008091B10084608093B1008091F7
:100BF000B00081608093B00080917A00846080931F
:100C00007A0080917A00826080937A0080917A00E5
:100C1000816080937A0080917A00806880937A0066
:100C20001092C10062E08091C4010E94D2022FB7ED
:100C3000F89480911E0190911F01A0912001B09124
:100C400021012FBF805D9740A109B1098093C801A0
:100C50009093C901A093CA01B093CB0187E380931D
:100C6000D1018091D2019091D3012091D401309192
:100C7000D5018217930719F061E00E94D20280919A
:100C8000D4019091D5012091D2013091D301281740
:100C9000390719F061E00E94D2021FB7F8948091E1
:100CA0001D01811127C0E4EAF1E08491E8EBF1E055
:100CB0009491E82FF0E0EE0FFF1FE058FE4FA59152
:100CC000B491EC91E92321F461E08AE00E945C0296
:100CD00061E08AE00E94D2028CB580618CBD8CB547
:100CE00080648CBD61E08DE00E94D20261E08BE007
:100CF0000E94D20280911D018F5F80931D011FBF52
:100D000080E00E94C20281E00E94A80265E070E0DB
:100D100080E090E00E9428036CE080E00E9468047C
:100D20006FE584E00E94680486E00E947E04877D6F
:100D3000182F10628BE990E0A0E0B0E08093E20110
:100D40009093E301A093E401B093E501612F86E065
:100D50000E94680486E00E947E04181303C081E0AC
:100D60008093D80186E00E947E0486E00E947E0483
:100D700045E550E060E070E04093E2015093E3010C
:100D80006093E4017093E501682F677D86E00E941F
:100D9000680486E00E947E0480E00E94A80280E54C
:100DA0000E94610483E70E94610481E00E94A8021E
:100DB00060E08DE10E94680460E08CE10E946804BC
:100DC0001092DA0160E787E00E9468046CE485E035
:100DD0000E94680482EE0E94900481EE0E949004BA
:100DE00080E00E947E0481FD0BC0682F626080E07D
:100DF0000E94680465E070E080E090E00E942803B3
:100E000080E00E947E04682F6E7F80E00E9468046C
:100E10006091E0018AE00E949F046091E00180E11E
:100E20000E949F046091D90181E10E94680486E0DC
:100E30000E947E04887F682F616086E00E946804BB
:100E400080E00E94C2028091E2019091E3010E9441
:100E500044018DE10E947E0481FF09C08091E2017E
:100E60009091E3010E94440181EE0E94900480E091
:100E70000E947E04682F6E7F80E00E94680482E0FA
:100E80000E947E04EAE8F1E0E49161E070E001C0D4
:100E9000660FEA95EAF7682B82E00E94680420E07A
:100EA000A22E20E0B22E0E945A03882309F4DDC04E
:100EB0008091C5018C3009F47AC048F48B3001F17F
:100EC000C12CD12C80ECE82E8FE7F82E43C0855141
:100ED0008230B0F71091C101612F70E0762F662744
:100EE00066277F778091C201682B90E080E00E94A6
:100EF000470B2DEC3CEC4CEC5DE30E94D50B73C032
:100F00006091C10170E090E080E00E94470B6B01AE
:100F10007C011091C20117FF0AC0AC019B0160E087
:100F200070E080E89FEB0E94DA0A6B017C011F7081
:100F3000612F70E090E080E00E94490B2DEC3CECCA
:100F40004CEC5DE30E94D50BA70196010E94DB0AE1
:100F50006B017C01A7019601C701B6010E94420CFA
:100F6000811183C08E010F5F1F4F22E044E0C70153
:100F7000B6010E944E081091D901012F163008F0D9
:100F800005E08091DA01101B811110E080E00E94E1
:100F9000A80280EA0E946104CE0101967C01015002
:100FA00058F1F70181917F010E946104F8CF1091FF
:100FB000C101612F70E090E080E00E94470B6B015F
:100FC0007C016091C2016F7070E090E080E00E944F
:100FD000490B2DEC3CEC4CEC5DE30E94D50BA701DA
:100FE00096010E94DB0A6B017C0117FFB3CFF7FA71
:100FF000F094F7F8F094AECF115020F080E00E940A
:101000006104FACF81E00E94A80281E00E94C2023E
:101010008FB7F894C0901E01D0901F01E09020017E
:10102000F09021018FBF8FEF0E949004807349F5EB
:101030002FB7F89480911E0190911F01A09120017B
:10104000B09121012FBF8C199D09AE09BF098036CF
:101050009105A105B10538F381E08093E10160E8D5
:101060007EEE86E390E00E942803A114B10409F407
:101070001ACF0E941B02882309F415CF0E9400009A
:1010800012CF80E00E94C20260E787E00E946804FD
:1010900084FFE5CF81EE0E949004E1CFEF920F93A1
:1010A0001F93CF93DF93E80134E047FD34E1042E32
:1010B000000C550B57FF03C0519541955109E32E84
:1010C000022F242FAE010E946C08CE01DF91CF9138
:1010D0001F910F91EF900895A9E0B0E0E2E7F8E0EA
:1010E0000C94A90A6A01F22EB02E102FFBE3AF2E4A
:1010F000A01608F41BE31F5F012F27E0AE014F5F2E
:101100005F4F0E94CB09BC018981982F9970913063
:1011100009F43FC09BE2E1FC04C09E2D9170E0FC0D
:101120003AC05E2D5071E82FE87083FF46C084E01E
:10113000911101C083E0EF2DE81B8F1508F0E0E06E
:10114000D6018E2F20E2552351F1992329F0D601A3
:101150009C93C60101966C0196012D5F3F4FE2FE04
:1011600024C08EE4D6018C9391E411969C93119740
:1011700012968C93D9018E2F90E281111BC0E20F41
:10118000F32FF11D10828EEF9FEF2996ECE00C9467
:10119000C50A9DE2C6CF90E2C4CF2D938150811144
:1011A000FCCFCE0ED11CE0E0D0CF8EE6D6018C93E2
:1011B00091E6DBCF9D938150E0CF482F447082FFB2
:1011C0003DC084E0911101C083E08F1510F4EF2D34
:1011D000E81BD6018E2F20E2552309F1992329F02F
:1011E000D6019C93C60101966C0196012D5F3F4F7D
:1011F000E2FE1BC089E4D6018C938EE411968C9399
:10120000119786E412968C93D9018E2F90E2882351
:1012100009F4B5CF9D938150FACF2D938150811160
:10122000FCCFCE0ED11CE0E0D9CF89E6D6018C935D
:101230008EE611968C93119786E6E4CF9B0177FF9B
:1012400002C030E020E0A1E0B0E0911102C0B0E0C7
:10125000A0E0F9013196AE0FBF1F8B2C912CBB2063
:1012600009F461C05401EFEFAE1ABE0AAA0DBB1D0E
:10127000FA161B0619F014F04F2D4A1B511188C0A5
:10128000E3FC59C07601A42FB0E2A1114FC0C40EF7
:10129000D11C992309F45BC040E0D6011196F601F8
:1012A00090836D01552309F448C0012F060F9A81E0
:1012B000582F507184FF03C0913309F40150101668
:1012C0000CF047C0093008F008E0EEE2FE2E5B01AA
:1012D000A01AB10885019194819491082F3F32079B
:1012E00029F4D601FC92F60131966F01621773075B
:1012F00094F1021713077CF5DB01A21BB30BAA24A0
:10130000A394B12CAC0EBD1EAA0DBB1D11968C91E1
:1013100021503109D601119628153905F4F0F6014E
:1013200080836D01DBCFB12CA12CA0CFF701B1934D
:101330007F01A150AACF9111B0CFD601942F50E3D5
:1013400002C05D9391509111FCCFC40ED11C40E0BE
:10135000ACCF01E0BACF80E3DBCF6217730731F483
:10136000963388F4953311F4552369F0F6018083A0
:10137000FD01842F90E2811108C0A40FB11D1C92C1
:1013800090E080E002CF81E3F1CF91938150F3CFE1
:10139000911183CF8ACF283008F027E03327DA0174
:1013A000990F311D87FD916000966105710539F433
:1013B00032602E5F3D9330E32A95E1F708959F3F19
:1013C00030F080387105610509F03C5F3C5F3D936A
:1013D000913008F08068911DDF93CF931F930F9396
:1013E000FF92EF92192F987F9695E92F96959695F3
:1013F000E90FFF27EE53FF4F99273327EE24FF24F1
:10140000A701E70105900894079428F4360FE71E1A
:10141000F81E491F511D660F771F881F991F0694DC
:10142000A1F70590079428F4E70EF81E491F561FF0
:10143000C11D770F881F991F661F0694A1F705909D
:10144000079428F4F80E491F561FC71FD11D880F97
:10145000991F661F771F0694A1F70590079420F443
:10146000490F561FC71FD81F990F661F771F881F68
:101470000694A9F784911095177041F0D695C795F9
:1014800057954795F794E7941A95C1F7E8E6F0E089
:1014900068941590159135916591959105907FE22D
:1014A0007395E118F10A430B560BC90BD009C0F72D
:1014B000E10CF11E431F561FC91FD01D7EF470336F
:1014C00011F48A95E6CFE894015030F0080F0AF441
:1014D0000027021708F4202F2395022F7A3328F0D3
:1014E00079E37D932A95E9F710C07D932A9589F6D3
:1014F000069497956795379517951794E118F10A13
:10150000430B560BC90BD00998F023957E91739528
:101510007A3308F070E37C932013B8F77E91706102
:101520007D9330F0839571E37D9370E32A95E1F725
:101530001124EF90FF900F911F91CF91DF91992788
:1015400087FD909508952F923F924F925F926F92F0
:101550007F928F929F92AF92BF92CF92DF92EF9243
:10156000FF920F931F93CF93DF93CDB7DEB7CA1BC4
:10157000DB0B0FB6F894DEBF0FBECDBF09942A88EF
:10158000398848885F846E847D848C849B84AA8497
:10159000B984C884DF80EE80FD800C811B81AA8124
:1015A000B981CE0FD11D0FB6F894DEBF0FBECDBFEF
:1015B000ED0108955058BB27AA270E94F20A0C9407
:1015C0009B0B0E948D0B38F00E94940B20F039F495
:1015D0009F3F19F426F40C948A0B0EF4E095E7FB78
:1015E0000C94840BE92F0E94AC0B58F3BA176207D6
:1015F00073078407950720F079F4A6F50C94CE0BB9
:101600000EF4E0950B2EBA2FA02D0B01B90190011D
:101610000C01CA01A0011124FF27591B99F0593F61
:1016200050F4503E68F11A16F040A22F232F342FA9
:101630004427585FF3CF469537952795A795F040F7
:101640005395C9F77EF41F16BA0B620B730B840B0C
:10165000BAF09150A1F0FF0FBB1F661F771F881FC4
:10166000C2F70EC0BA0F621F731F841F48F487951C
:1016700077956795B795F7959E3F08F0B0CF93950E
:10168000880F08F09927EE0F979587950895E894AD
:1016900009C097FB3EF490958095709561957F4FBA
:1016A0008F4F9F4F9923A9F0F92F96E9BB27939568
:1016B000F695879577956795B795F111F8CFFAF478
:1016C000BB0F11F460FF1BC06F5F7F4F8F4F9F4FA9
:1016D00016C0882311F096E911C0772321F09EE807
:1016E000872F762F05C0662371F096E8862F70E06D
:1016F00060E02AF09A95660F771F881FDAF7880F47
:101700009695879597F9089597F99F6780E870E017
:1017100060E008959FEF80EC089500240A94161667
:10172000170618060906089500240A9412161306CF
:10173000140605060895092E0394000C11F488235D
:1017400052F0BB0F40F4BF2B11F460FF04C06F5F79
:101750007F4F8F4F9F4F089557FD9058440F551F4F
:1017600059F05F3F71F04795880F97FB991F61F023
:101770009F3F79F087950895121613061406551F9A
:10178000F2CF4695F1DF08C0161617061806991F06
:10179000F1CF86957105610508940895E894BB27FB
:1017A00066277727CB0197F908950E94E80B0C94E0
:1017B0009B0B0E948D0B38F00E94940B20F0952318
:1017C00011F00C94840B0C948A0B11240C94CF0B05
:1017D0000E94AC0B70F3959FC1F3950F50E0551F1D
:1017E000629FF001729FBB27F00DB11D639FAA2776
:1017F000F00DB11DAA1F649F6627B00DA11D661FC5
:10180000829F2227B00DA11D621F739FB00DA11DE5
:10181000621F839FA00D611D221F749F3327A00D9F
:10182000611D231F849F600D211D822F762F6A2F3B
:1018300011249F5750409AF0F1F088234AF0EE0FA0
:10184000FF1FBB1F661F771F881F91505040A9F7CD
:101850009E3F510580F00C94840B0C94CF0B5F3F9E
:10186000E4F3983ED4F3869577956795B795F79509
:10187000E7959F5FC1F7FE2B880F911D9695879581
:1018800097F908950E94470C880B990B0895990FBA
:101890000008550FAA0BE0E8FEEF16161706E8073A
:1018A000F907C0F012161306E407F50798F0621B5B
:1018B000730B840B950B39F40A2661F0232B242B30
:1018C000252B21F408950A2609F4A140A6958FEF4F
:1018D000811D811D0895EE0FFF1F0590F491E02DED
:0618E0000994F894FFCF0B
:1018E60030303030310000000000AE012F024F01D1
:0818F600FB0180015E0172019B
:107E0000112484B714BE81FFF0D085E080938100F7
:107E100082E08093C00088E18093C10086E0809377
:107E2000C20080E18093C4008EE0C9D0259A86E02C
:107E300020E33CEF91E0309385002093840096BBD3
:107E4000B09BFECF1D9AA8958150A9F7CC24DD24C4
:107E500088248394B5E0AB2EA1E19A2EF3E0BF2EE7
:107E6000A2D0813461F49FD0082FAFD0023811F036
:107E7000013811F484E001C083E08DD089C08234E0
:107E800011F484E103C0853419F485E0A6D080C0E4
:107E9000853579F488D0E82EFF2485D0082F10E0AE
:107EA000102F00270E291F29000F111F8ED06801E7
:107EB0006FC0863521F484E090D080E0DECF843638
:107EC00009F040C070D06FD0082F6DD080E0C81688
:107ED00080E7D80618F4F601B7BEE895C0E0D1E017
:107EE00062D089930C17E1F7F0E0CF16F0E7DF06D8
:107EF00018F0F601B7BEE89568D007B600FCFDCFD4
:107F0000A601A0E0B1E02C9130E011968C91119780
:107F100090E0982F8827822B932B1296FA010C0160
:107F200087BEE89511244E5F5F4FF1E0A038BF0790
:107F300051F7F601A7BEE89507B600FCFDCF97BE46
:107F4000E89526C08437B1F42ED02DD0F82E2BD052
:107F50003CD0F601EF2C8F010F5F1F4F84911BD097
:107F6000EA94F801C1F70894C11CD11CFA94CF0C13
:107F7000D11C0EC0853739F428D08EE10CD085E9AC
:107F80000AD08FE07ACF813511F488E018D01DD067
:107F900080E101D065CF982F8091C00085FFFCCF94
:107FA0009093C60008958091C00087FFFCCF809118
:107FB000C00084FD01C0A8958091C6000895E0E648
:107FC000F0E098E1908380830895EDDF803219F02E
:107FD00088E0F5DFFFCF84E1DECF1F93182FE3DFCA
:107FE0001150E9F7F2DF1F91089580E0E8DFEE27F6
:047FF000FF270994CA
:027FFE00040479
:0400000300007E007B
:00000001FF
