:100000000CC100003AC1000038C1000036C1000038
:1000100034C1000032C1000030C100002EC1000018
:100020002CC10000B1C50000AFC50000ADC5000087
:1000300024C1000022C1000020C100001EC1000038
:100040001CC100001AC1000018C1000016C1000048
:1000500014C1000012C1000010C100004BC5000017
:100060000CC1000011C50000E6C4000006C100007C
:1000700004C1000002C1000000C10000FEC0000079
:10008000FCC00000FAC00000F8C00000F6C000008C
:10009000F4C00000F2C00000F0C00000EEC000009C
:1000A000ECC00000EAC00000E8C00000E6C00000AC
:1000B000E4C00000E2C00000E0C00000DEC00000BC
:1000C000DCC00000DAC00000D8C00000D6C00000CC
:1000D000D4C00000D2C00000D0C00000CEC00000DC
:1000E000CCC0000000000A0B02090C0D0E0807032B
:1000F00004010000000000000000000000000000FB
:1001000000000000000000000000000000000000EF
:1001100012111000000000000000000000000000AC
:10012000000000000000000000000000210024008A
:1001300027002A002D0030003300010100000401D7
:1001400007010A011112131415160A0B0C0D0E0FDC
:1001500000010203040500002000230026002900FE
:100160002C002F00320000010000030106010901EC
:1001700000002200250028002B002E003100340052
:1001800002010000050108010B0105050505070531
:1001900008080808020202020A0A08080404040403
:1001A000010101010101010103030303030303032F
:1001B000040707070C0C0C0C0C0C0C0C02020202BE
:1001C00006060606060606060B0B0B0B0B0B0B0BA7
:1001D0000102102020080810204010204080020159
:1001E000020108040201010204081020408080403E
:1001F000201008040201800402018040201008043D
:1002000002010804020101020408102040800102DA
:100210000408102040804006340A11241FBECFEF8E
:10022000D1E2DEBFCDBF00E00CBF23E0A4E3B2E02B
:1002300001C01D92AA35B207E1F712E0A0E0B2E0DA
:10024000E2E4F9E100E00BBF02C007900D92A43395
:10025000B107D9F711E0CCE0D1E000E006C021976A
:100260000109802FFE010E94630ACB30D10780E094
:100270000807A9F7D0D50C94900CC2CEAF92BF92CC
:10028000CF92DF92EF92FF920F931F93CF93DF9362
:100290006C017B018B01040F151FEB015E01AE1891
:1002A000BF08C017D10759F06991D601ED91FC91B3
:1002B0000190F081E02DC6011995892B79F7C501D0
:1002C000DF91CF911F910F91FF90EF90DF90CF9032
:1002D000BF90AF900895FC01538D448D252F30E0E1
:1002E000842F90E0821B930B541710F0CF96089543
:1002F00001970895FC01918D828D981761F0A28D70
:10030000AE0FBF2FB11D5D968C91928D9F5F9F7335
:10031000928F90E008958FEF9FEF0895FC01918DEB
:10032000828D981731F0828DE80FF11D858D90E058
:1003300008958FEF9FEF0895FC01918D228D892FF5
:1003400090E0805C9F4F821B91098F7399270895DD
:1003500082E892E0F1DF21E0892B09F420E0822F8E
:100360000895FC01A48DA80FB92FB11DA35ABF4F4A
:100370002C91848D90E001968F739927848FA689A4
:10038000B7892C93A089B1898C91837080648C93F8
:10039000938D848D981306C00288F389E02D8081A7
:1003A0008F7D80830895EF92FF920F931F93CF93D9
:1003B000DF93EC0181E0888F9B8D8C8D98131AC0A0
:1003C000E889F989808185FF15C09FB7F894EE8987
:1003D000FF896083E889F9898081837080648083E4
:1003E0009FBF81E090E0DF91CF911F910F91FF902F
:1003F000EF900895F62E0B8D10E00F5F1F4F0F73D7
:100400001127E02E8C8D8E110BC00FB607FCFACF92
:10041000E889F989808185FFF5CFCE01A2DFF2CF8F
:10042000EB8DEC0FFD2FF11DE35AFF4FF0829FB7CC
:10043000F8940B8FEA89FB8980818062D0CFCF93BB
:10044000DF93EC01888D8823B1F0AA89BB89E88904
:10045000F9898C9185FD03C0808186FD0CC00FB6A3
:1004600007FCF7CF8C9185FFF2CF808185FFEDCF20
:10047000CE0177DFEACFDF91CF91089580E090E061
:10048000892B21F065DF81110E94000080E090E05F
:10049000892B49F080E090E0892B29F00E94000030
:1004A00081110E94000080E090E0892B49F080E0FB
:1004B00090E0892B29F00E94000081110E94000029
:1004C00080E090E0892B49F080E090E0892B29F0D2
:1004D0000E94000081110C9400000895282F30E044
:1004E000F901EC51FF4F9491F901E053FE4F449113
:1004F00026573E4FF9012491222309F434C0992351
:1005000009F191509231F0F4E92FF0E08827E55796
:10051000FD4F8F4FD8C7BC02C0029D02B402B80283
:10052000A202C302C902CD02D302D702DB02E1025A
:10053000E502A202E902EF02F302809180008F77C8
:1005400080938000E22FF0E0EE0FFF1FE059FE4F96
:10055000A591B4918FB7F894EC91611148C0409582
:100560004E234C938FBF0895809180008F7DE8CFFC
:1005700080918000877FE4CF84B58F7784BDE2CF00
:1005800084B58F7DFBCF8091B0008F778093B000D2
:10059000D9CF8091B0008F7DF9CF809190008F7777
:1005A00080939000CFCF809190008F7DF9CF809184
:1005B0009000877FF5CF8091A0008F778093A00077
:1005C000C1CF8091A0008F7DF9CF8091A000877F5F
:1005D000F5CF809120018F7780932001B3CF809158
:1005E00020018F7DF9CF80912001877FF5CF4E2BA1
:1005F000B8CF9CB59F7D9CBD9CB5937F9CBD9CB5A1
:100600009C7F9CBD9DB591609DBD682F809121030D
:1006100065DF80913303909134038230910538F087
:10062000880F991F880F991F05970197F1F7089573
:10063000CF93DF9390E0FC01E053FE4F2491865767
:100640009E4FFC0184918823D1F090E0880F991F80
:10065000FC01E65DFE4FA591B491FC01E059FE4F0F
:10066000C591D49161110EC09FB7F8948C91E22F7F
:10067000E0958E238C932881E223E8839FBFDF914E
:10068000CF9108958FB7F894EC91E22BEC938FBF44
:10069000F6CF3FB7F8948091750290917602A091C1
:1006A0007702B091780226B5A89B05C02F3F19F0BC
:1006B0000196A11DB11D3FBFBA2FA92F982F8827E2
:1006C000BC01CD01620F711D811D911D42E0660FBD
:1006D000771F881F991F4A95D1F708958F929F928F
:1006E000AF92BF92CF92DF92EF92FF92D2DF4B0197
:1006F0005C0185E0C82ED12CE12CF12CCADF6819F1
:1007000079098A099B09683E734081059105B0F318
:1007100021E0C21AD108E108F10888EE880E83E0D2
:10072000981EA11CB11CC114D104E104F10431F7DD
:10073000FF90EF90DF90CF90BF90AF909F908F9001
:1007400008958EBD00000DB407FEFDCF8EB508954F
:10075000CF93DF93C82FD62F80E04BDF8C2F8F7184
:100760008062EFDFC82F8D2FECDF81E042DF8C2F1E
:10077000DF91CF910895CF9380E03BDF81EEE1DF01
:10078000C82F81E036DF8C2FCF910895CF93C82FEB
:1007900080E02FDF8C2FD5DF8FEFD3DFC82F81E0F4
:1007A00028DF8C2FCF91089580E0F0DF81FD05C018
:1007B000682F626080E0CCDF91CF0895EF92FF92C6
:1007C0000F931F93CF93DF93C82F7B01142F80E0EB
:1007D00010DF8C2F8F718062B4DF082FE70111507A
:1007E00018F08991AEDFFBCF81E003DF802FDF912E
:1007F000CF911F910F91FF90EF90089520917B0270
:1008000030917C022817390771F490917902809118
:100810007A02981741F0E0917902F0E0EC5CFD4F2C
:10082000808190E008958FEF9FEF08950895EF92F3
:10083000FF920F931F93CF93DF93DC015C96ED90B3
:10084000FC905D97E114F10479F481E090E0139657
:100850009C938E93129790E080E0DF91CF911F914F
:100860000F91FF90EF9008955196ED91FC91529762
:1008700050968C915097982F90950FB75E962C912B
:100880005E97122F127021FD6095F894208111233C
:1008900019F1282B2083E7012197F1F728E0462F53
:1008A00050E0308160FF1AC0382B3083E701219778
:1008B000F1F7BA0175956795215089F7112381F0F9
:1008C0008081892380830FBF5C968D919C910197D5
:1008D000F1F781E090E0C1CF2923DCCF3923E5CFC8
:1008E0009081892BEFCF20917B0230917C022817D9
:1008F000390769F480917A022091790290E0805C56
:100900009F4F821B910960E470E0CAC5089590E092
:1009100080E0089520917B0230917C0228173907EE
:10092000B9F49091790280917A02981789F0E09158
:100930007902F0E0EC5CFD4F80812091790230E09B
:100940002F5F3F4F2F7333272093790290E0089554
:100950008FEF9FEF08952FB7F89480917E029091CA
:100960007F02A0918002B09181022FBF80933F034C
:1009700090934003A0934103B093420387E393E035
:10098000C9DF97FF26C02FB7F89480917E0290911F
:100990007F02A0918002B09181022FBF40913F035E
:1009A000509140036091410370914203841B950B69
:1009B000A60BB70B40913B0350913C0360913D0364
:1009C00070913E0384179507A607B707B8F28FEF1B
:1009D0009FEF089590E080E0089542E050E060E3EA
:1009E00072E082E892E04ACC0F931F93CF93DF939B
:1009F000EC0188819981009759F02A813B81261763
:100A0000370730F081E0DF91CF911F910F9108956A
:100A10008B016F5F7F4F98D6009759F09983888339
:100A20001B830A832C813D81232B61F7FC011082FB
:100A3000E9CF80E0E8CF1F920F920FB60F921124FA
:100A40000BB60F922F933F934F935F936F937F93C8
:100A50008F939F93AF93BF93EF93FF9382E892E0BE
:100A600080DCFF91EF91BF91AF919F918F917F912A
:100A70006F915F914F913F912F910F900BBE0F900F
:100A80000FBE0F901F9018951F920F920FB60F92E6
:100A900011240BB60F922F938F939F93EF93FF9395
:100AA000E0919202F09193028081E0919802F0919E
:100AB000990282FD1DC0908180919B028F5F8F7390
:100AC00020919C02821741F0E0919B02F0E0EE57EA
:100AD000FD4F958F80939B02FF91EF919F918F9196
:100AE0002F910F900BBE0F900FBE0F901F90189577
:100AF0008081F2CF1F920F920FB60F9211242F9385
:100B00003F938F939F93AF93BF9380917E02909179
:100B10007F02A0918002B09181023091740223E0A3
:100B2000230F2D3758F50196A11DB11D2093740296
:100B300080937E0290937F02A0938002B093810203
:100B40008091750290917602A0917702B09178021F
:100B50000196A11DB11D8093750290937602A0931A
:100B60007702B0937802BF91AF919F918F913F919F
:100B70002F910F900FBE0F901F90189526E8230F0E
:100B80000296A11DB11DD2CF1F920F920FB60F92E8
:100B900011240BB60F922F933F934F935F936F9354
:100BA0007F938F939F93AF93BF93EF93FF93E091C6
:100BB0007B02F0917C02309749F0A685B785858548
:100BC000968D91FF16C09C918923B1F4FF91EF910E
:100BD000BF91AF919F918F917F916F915F914F9155
:100BE0003F912F910F900BBE0F900FBE0F901F9053
:100BF00018959C91892351F7A389B4899C91858983
:100C0000809589238C93868997890197F1F7608D68
:100C1000718DA685B785558538E020E0CB01019719
:100C2000F1F7822F90E095958795282F4C914523D9
:100C300009F02068315091F7868D81FD20958091D3
:100C40007A0290E001968F739927309179023817D4
:100C500099F0A0917A02B0E0AC5CBD4F2C938093E8
:100C60007A02828D938D0197F1F7A389B4898C91D3
:100C70009589892B8C93AACF868D8160868FF1CF41
:100C8000109285021092840288EE93E0A0E0B0E01A
:100C90008093860290938702A0938802B093890282
:100CA00020E132E0309383022093820225EC30E091
:100CB00030938F0220938E0224EC30E03093910227
:100CC0002093900220EC30E0309393022093920224
:100CD00021EC30E0309395022093940222EC30E036
:100CE000309397022093960226EC30E030939902DD
:100CF0002093980210929B0210929C0210929D02E7
:100D000010929E0210923A031092390380933B0393
:100D100090933C03A0933D03B0933E0382E292E0A4
:100D2000909338038093370310924E0310924D0333
:100D30001092500310924F031092520310925103DD
:100D40001092540310925303609155036E7F6D7F90
:100D5000609355036695617081E068278BE0BEDB88
:100D600061E08BE065DCEBEDF1E0E491E0934703BB
:100D7000E5E9F1E0E491F0E0EE0FFF1FE059FE4FEE
:100D800085919491909349038093480360E08AE0B1
:100D90004FDC8091550381FD03C061E08AE09EDB5A
:100DA0008AE080934303EAEDF1E0E491E0934403A9
:100DB000E4E9F1E0E491F0E0EE0FFF1FEA5AFE4FA4
:100DC00085919491909346038093450387E090E04A
:100DD0009093200380931F0388E090E09093220378
:100DE000809321031092250380E2809326031092C2
:100DF000270385E080932D0385E090E0A0E0B0E03C
:100E00008093330390933403A0933503B093360358
:100E1000109228030895CF93DF93CDB7DEB7A29742
:100E20000FB6F894DEBF0FBECDBF789484B5826054
:100E300084BD84B5816084BD85B5826085BD85B57E
:100E4000816085BD80916E00816080936E001092FC
:100E50008100809181008260809381008091810077
:100E60008160809381008091800081608093800008
:100E70008091B10084608093B1008091B000816066
:100E80008093B00080919100826080939100809166
:100E900091008160809391008091900081608093A7
:100EA00090008091A10082608093A1008091A100B8
:100EB00081608093A1008091A00081608093A00058
:100EC00080912101826080932101809121018160C4
:100ED0008093210180912001816080932001809185
:100EE0007A00846080937A0080917A008260809397
:100EF0007A0080917A00816080937A0080917A00F4
:100F0000806880937A001092C100E0919202F09183
:100F1000930282E08083E0918E02F0918F02108232
:100F2000E0919002F09191028FEC808310929A02EE
:100F3000E0919602F091970286E08083E09194021E
:100F4000F0919502808180618083E0919402F0911C
:100F50009502808188608083E0919402F0919502EF
:100F6000808180688083E0919402F0919502808175
:100F70008F7D808310925203109251031092500380
:100F800010924F0310924E0310924D038DE991E0A1
:100F900090935403809353038091430396EF980FEB
:100FA000943048F02EEC280F243028F022EC280F43
:100FB000283008F061C02DEB30E030934E032093D1
:100FC0004D032BE931E03093500320934F032CE283
:100FD00031E03093520320935103943050F02EECC3
:100FE000280F243030F022EC280FF0E0E0E0283029
:100FF00010F4E8E6F0E02081943028F032EC380F6D
:10100000383008F4B1C131E0232B943048F09EEC25
:10101000980F943028F08E53F0E0E0E0883010F420
:10102000E8E6F0E020832091430336EF320F3430BE
:1010300008F49CC18EEC820F843008F497C182ECD6
:10104000820F883008F095C18DE690E090934B03B5
:1010500080934A03343008F08FC12650330B81E06F
:1010600001C0880F2A95EAF780934C0380915303BF
:10107000909154030197F1F780915103909152039D
:10108000892B49F1E0917B02F0917C0283E0E73308
:10109000F80709F1309739F0A389B4899C918589C3
:1010A000809589238C93809155038E7F809355037F
:1010B00010927A021092790287E393E090937C0277
:1010C00080937B02E0914A03F0914B0380819091E1
:1010D0004C03892B808380911F03909120032091E2
:1010E0002103309122038217930711F061E0A0DA07
:1010F000809121039091220320911F0330912003BE
:101100002817390711F061E093DA1FB7F89480913E
:101110007D02811123C0EFEBF1E08491E5E0F2E084
:101120009491E82FF0E0EE0FFF1FE65DFE4FA591D2
:10113000B491EC91E92319F461E085E3CFD961E042
:1011400085E376DA8CB580618CBD8CB580648CBD0E
:1011500061E084E36DDA61E083E36ADA80917D0225
:101160008F5F80937D021FBF80911F0390912003AA
:1011700020912103309122038217930711F060E040
:10118000ADD981E036DAAADA6CE080E0E1DA6FE529
:1011900084E0DEDA86E0FADA877D182F10628BE9C8
:1011A00090E0A0E0B0E080932F0390933003A093F1
:1011B0003103B0933203612F86E0CADA86E0E6DAC3
:1011C000181303C081E08093250386E0DFDA86E010
:1011D000DDDA45E550E060E070E040932F03509386
:1011E00030036093310370933203682F677D86E08C
:1011F000AFDA86E0CBDA80E0FCD980E5A2DA83E7DB
:10120000A0DA81E0F6D960E08DE1A2DA60E08CE15D
:101210009FDA1092270360E787E09ADA6CE485E0B2
:1012200097DA80E0E6D982EE8CDA81E0E2D9A3DABF
:10123000BBDA80E0ABDA682F6E7F80E089DA40911C
:101240002D0350E066E072E088E293E059D3EAE4CF
:10125000F1E0849140912D0366E072E0AFDAE4E4BE
:10126000F1E084916091260373DA82E08FDA00E581
:1012700011E0F801949161E070E001C0660F9A9569
:10128000EAF7682B82E064DA86E080DA887F682FEC
:10129000616086E05DDA88DA80E078DA682F616084
:1012A00080E056DA60E787E053DA80911F0390917F
:1012B000200320912103309122038217930711F01C
:1012C00061E00CD980912803882309F46AC0409119
:1012D0002D0368E273E08AE071DA8DE157DA81FD6F
:1012E0004ADA8EE1B82E7E01F3E0EF0EF11C87E3BF
:1012F00093E0F9DA892B09F477C01A8219821C82EB
:101300001B821E821D8270E060E0CE0101966CDBC4
:1013100029813A81811155C02115310511F0C9018A
:101320008AD11A8219821E821D821C821B8213DBC3
:101330004D815E8197FD4CC089A31AA28A010F5F7F
:101340001F4FB801CE0101964FDB882381F329811D
:101350003A818D819E81BE016F5D7F4F820F931F09
:10136000D8D21E830D83E3CF34E04ECE8BE690E0DF
:101370006DCE90E080E06ACE88E0223309F474CE2E
:1013800084E0233309F470CE82E0243309F46CCE78
:1013900082EC820F883018F42E53330B60CE81E03C
:1013A00063CE82E0F3D9F801049121E030E001C07E
:1013B000220F0A95EAF72095622F682382E0C8D9A8
:1013C0008CCF1E821D8262E372E0C901A2D2AFCF30
:1013D00069817A8182E892E00E943E01FEDA898189
:1013E0009A81009709F027D187E1D0D980FD3AC0D2
:1013F0001A821982F7018B2D11928A95E9F71091C3
:10140000260300E2103208F4012F80912703101BFD
:10141000811110E080E0EDD881E693D9FE0131968C
:101420004F016F01015030F08FEF8BD9F4018193A0
:101430004F01F8CF115018F08FEF83D9FBCF81E027
:10144000D8D860E787E084D9F60101900020E9F759
:101450003197AF014C195D09B60182E892E00E9414
:101460003E01BBDA0BD843CF82E292E0909338037F
:101470008093370380917B0290917C028753934045
:1014800071F4E0914A03F0914B03908180914C03F9
:1014900080958923808310927C0210927B020895AC
:1014A00097FB072E16F4009406D077FD08D013D0D2
:1014B00007FC05D03EF4909581959F4F0895709557
:1014C00061957F4F0895EE0FFF1F881F8BBF079018
:1014D000F691E02D1994AA1BBB1B51E107C0AA1F6E
:1014E000BB1FA617B70710F0A61BB70B881F991FC5
:1014F0005A95A9F780959095BC01CD0108950F9359
:101500001F93CF93DF938230910510F482E090E037
:10151000E0915803F091590330E020E0B0E0A0E002
:10152000309799F42115310509F44AC0281B390B6D
:1015300024303105D8F58A819B816115710589F1C7
:10154000FB0193838283FE0111C04081518102819E
:10155000138148175907E0F04817590799F4109775
:1015600061F012960C93129713961C933296CF014A
:10157000DF91CF911F910F9108950093580310931D
:101580005903F4CF2115310551F04217530738F0B4
:10159000A901DB019A01BD01DF01F801C1CFEF0113
:1015A000F9CF9093590380935803CDCFFE01E20FFA
:1015B000F31F819391932250310939832883D7CF28
:1015C0002091560330915703232B41F420910202BE
:1015D0003091030230935703209356032091000269
:1015E000309101022115310541F42DB73EB74091EC
:1015F000040250910502241B350BE0915603F09133
:101600005703E217F307A0F42E1B3F0B28173907E7
:1016100078F0AC014E5F5F4F2417350748F04E0F4E
:101620005F1F5093570340935603819391939FCF2D
:10163000F0E0E0E09CCFCF93DF930097E9F0FC016E
:10164000329713821282A0915803B0915903ED0191
:1016500030E020E01097A1F420813181820F931FA8
:1016600020915603309157032817390709F061C0BC
:10167000F0935703E0935603DF91CF910895EA0169
:10168000CE17DF07E8F54A815B819E0141155105C0
:10169000B1F7E901FB83EA8349915991C40FD51F42
:1016A000EC17FD0761F4808191810296840F951FEC
:1016B000E90199838883828193819B838A83F0E007
:1016C000E0E012968D919C9113970097B9F52D91BA
:1016D0003C911197CD010296820F931F20915603E2
:1016E000309157032817390739F6309751F5109282
:1016F000590310925803B0935703A0935603BCCFDD
:10170000D383C28340815181840F951FC817D907A5
:1017100061F44E5F5F4F88819981480F591F518353
:1017200040838A819B81938382832115310509F04F
:10173000B0CFF0935903E09358039ECFFD01DC0135
:10174000C0CF13821282D7CF4F925F926F927F9257
:101750008F929F92AF92BF92CF92DF92EF92FF92C1
:101760000F931F93CF93DF938C01009791F4CB01DC
:10177000DF91CF911F910F91FF90EF90DF90CF906D
:10178000BF90AF909F908F907F906F905F904F90A1
:10179000B6CEFC01E60FF71F9C0122503109E2177B
:1017A000F30708F4AAC0D901CD91DC911197C617AF
:1017B000D70718F1C530D10570F0CE010497861710
:1017C000970748F0C61BD70B2297C193D1936D930F
:1017D0007C93CF0130DFC801DF91CF911F910F9132
:1017E000FF90EF90DF90CF90BF90AF909F908F9041
:1017F0007F906F905F904F9008955B01AC1ABD0A87
:101800004C018C0E9D1EA0915803B0915903512C90
:10181000412CF12CE12C109731F5809156039091D9
:1018200057038815990509F05CC04616570608F05D
:1018300058C08091000290910102009741F48DB749
:101840009EB74091040250910502841B950BE81746
:10185000F90708F052C0F0935703E0935603F901DB
:1018600071836083B8CF8D919C91119712966C9083
:10187000129713967C901397A815B90559F56C012A
:1018800042E0C40ED11CCA14DB0420F1AC014A1999
:101890005B09DA011296159780F062827382518398
:1018A0004083D9016D937C93E114F10471F0D70169
:1018B0001396FC93EE9312978ECF22968C0F9D1F5A
:1018C000F90191838083F301EFCFF0935903E09303
:1018D000580381CF4816590608F42C017D01D30125
:1018E0009ACFCB010CDE7C01009739F0AE01B80134
:1018F00007D0C801A0DE87016ECF10E000E06BCFFB
:10190000FB01DC0102C001900D9241505040D8F71C
:101910000895FB01DC0101900D920020E1F708958C
:1019200011E0CCE0D1E000E005C0802FFE01CBDD6E
:101930002196011DCD30D10780E00807B1F7F8945A
:02194000FFCFD7
:1019420000005A03800030303030310000000000C7
:10195200D3013E016B011F029C017A018E0100003E
:10196200000017043E01EA04160473048A04FE030D
:041972000D0A00005A
:00000001FF
